:100000000C9434000C9451000C9451000C94510049
:100010000C9451000C9451000C9451000C9451001C
:100020000C9451000C9451000C9451000C9451000C
:100030000C9451000C9451000C9451000C945100FC
:100040000C9451000C9451000C9451000C945100EC
:100050000C9451000C9451000C9451000C945100DC
:100060000C9451000C94510011241FBECFEFD8E026
:10007000DEBFCDBF12E0A0E0B1E0E4E9F6E002C0EF
:1000800005900D92A430B107D9F712E0A4E0B2E0D8
:1000900001C01D92A530B107E1F70E9417030C942F
:1000A00048030C940000FC0180818860808381E01B
:1000B00090E00197F1F78081877F808308952BB1CD
:1000C000982F9C7F922B9BB92BB1982F93609223F2
:1000D0009BB948B190E0880F991F9C012670332787
:1000E000422B48B928B1896F9F6F282328B90895FA
:1000F000EF92FF921F93CF93DF931F92CDB7DEB79E
:10010000182F842F5798E12EF92EF70120812061B6
:10011000208320812F7D20830000F701208128602B
:1001200020830000000039B1F7012081277F208360
:1001300020812F7E208337FDE6CF579A2081262B02
:10014000208320910402222329F099830E945F00DA
:10015000998101C08BB9812F0E945300F7018081E2
:100160008F7C80830F90DF91CF911F91FF90EF9054
:1001700008950F931F93CF93DF9381FF0AC09AB125
:100180009C6F9AB997B1966097B991E090930402E9
:1001900006C09FEF9AB91092C1001092040280FF2E
:1001A00009C084B1886384B985B1877C85B985E24B
:1001B00090E008C087B1886387B988B1877C88B927
:1001C00088E290E090930101809300018091040205
:1001D000882321F080E30E945F0002C080E38BB996
:1001E000C0910001D0910101CE010E94530080EA2C
:1001F00091E40197F1F7CE010E94530000E213E071
:10020000C8010197F1F7CE010E945300C801019780
:10021000F1F748E360E0CE010E94780048E060E03A
:10022000CE010E94780041E060E0CE010E9478009B
:1002300046E060E0CE010E9478004CE060E0CE0134
:100240000E94780010920201DF91CF911F910F91CF
:10025000089541E060E080910001909101010C94CB
:100260007800CF92DF92EF92FF920F931F93CF937C
:10027000DF938C01E0900001F090010140E860E024
:10028000C7010E947800E801680180E1C80ED11C16
:1002900008C060E2C7010E9478008E01CC15DD0520
:1002A00031F08E014991442311F04A3091F7F80161
:1002B00080818823C9F08A3011F40F5F1F4F40EC12
:1002C00060E0C7010E947800E801005F1F4F07C08F
:1002D00060E2C7010E947800C017D10729F0499158
:1002E000442311F04A30A1F7DF91CF911F910F9174
:1002F000FF90EF90DF90CF900895CF93DF93C82FBA
:100300002091020127FD55C080528F3508F580915C
:10031000000190910101203129F440EC60E00E943D
:1003200078000AC0222311F0203234F040E860E067
:100330000E947800109202014C2F60E2809100012F
:10034000909101010E947800809102018F5F05C0A9
:10035000CA3031F4203144F480E1809302012CC092
:10036000CC3029F40E9429011092020125C0C83026
:1003700019F5222309F121502093020180910001F7
:10038000909101012F3011F44FE801C040E160E08D
:100390000E947800C0910001D091010140E260E22A
:1003A000CE010E94780040E160E0CE010E9478001A
:1003B00003C02FEF3FEF02C020E030E0C901DF9122
:1003C000CF910895CF92DF92EF92FF920F931F93F8
:1003D000CF93DF938C01C12CD12CA0E0B0E0C0E022
:1003E000D0E00AC0F60131966894EE24E5F8FE10DC
:1003F00002C02196DF016F01C417D50749F4EC0153
:10040000CA0FDB1FF90140E050E0A21BB30B0DC087
:10041000F801F1908F01FF2091F3C616D70614F36F
:10042000EECF1193AF01421B530B1991103241F0E3
:10043000112331F0CD018E0F9F1F861797078CF384
:10044000F901E40FF51F1082CA01DF91CF911F91CE
:100450000F91FF90EF90DF90CF900895AC01FC01D9
:1004600020E030E00BC08191803219F42F5F3F4FC4
:1004700005C0811103C02F5F3F4F06C0CF01841B11
:10048000950B861797077CF3C90108951F93CF93A7
:10049000DF93FC01A0E0B0E020E030E0C0E0D0E07D
:1004A00005C01196103211F421969D01C417D5078D
:1004B00049F4422F532FFC01E40FF51F40E050E0B8
:1004C000CF010CC011911123A1F3A617B7074CF36C
:1004D000F0CFAF01481B590B2F5F3F4FA191A032C6
:1004E00029F0AA2319F0261737079CF3CA01DF91D8
:1004F000CF911F9108952F923F924F925F926F92EA
:100500007F928F929F92AF92BF92CF92DF92EF92A3
:10051000FF920F931F93CF93DF93CDB7DEB7C056F3
:10052000D1090FB6F894DEBF0FBECDBF3C012B0141
:10053000BC01C2010E942E024C01A12CB12CE12C65
:10054000F12CC12CD12C1AE01C0181E0281A3108B1
:1005500000E24AC09E012F5F3F4FA501B301C201D7
:100560000E94E2019C01C601820F931F419764F033
:10057000E1E4F0E0EC0FFD1FEE0DFF1D10838FEFA7
:10058000E81AF80AC12CD12CFE01319640E050E067
:1005900081E490E08C0F9D1F8E0D9F1D07C061911F
:1005A000DC01A40FB51F6C934F5F5F4F42175307D9
:1005B000B4F337FF02C020E030E0C20ED31EE20EDB
:1005C000F31EA214B3046CF4E1E4F0E0EC0FFD1FA1
:1005D000EE0DFF1D00838FEFE81AF80A8FEFC81A9F
:1005E000D80A8FEFA81AB80AA814B9040CF4B2CF2D
:1005F000CE018F5B9F4F0E943101C05ADF4F0FB673
:10060000F894DEBF0FBECDBFDF91CF911F910F9148
:10061000FF90EF90DF90CF90BF90AF909F908F9022
:100620007F906F905F904F903F902F900895CF9361
:10063000DF93CDB7DEB7DA950FB6F894DEBF0FBE05
:10064000CDBF82E090E00E94B90021E2E3E0F1E05A
:10065000CE010196DC0101900D922A95E1F7FE0191
:10066000B2962FEDDF011D922A95E9F78C010E94C9
:100670002901B80180E091E00E947B02BFEF23EDE9
:1006800080E3B15020408040E1F700C00000EFCF90
:04069000F894FFCF0C
:100694002800FF41422043444520464748494A2018
:1006A4004B4C4D4E4F5020515253205455562057C9
:1006B40051595A0000000000000000000000000032
:1006C4000000000000000000000000000000000026
:1006D4000000000000000000000000000000000016
:1006E4000000000000000000000000000000000006
:1006F40000000000000000000000000000000000F6
:1007040000000000000000000000000000000000E5
:1007140000000000000000000000000000000000D5
:1007240000000000000000000000000000000000C5
:1007340000000000000000000000000000000000B5
:1007440000000000000000000000000000000000A5
:100754000000000000000000000000000000000095
:100764000000000000000000000000000000000085
:100774000000000000000000000000000000000075
:100784000000000000000000000000000000000065
:040794000000000061
:00000001FF
